:10000000010A64007400750064007F0B5D0B660BD1
:1002BA00C704E70405045F0C0200F80C0600660098
:1002CA0000082B000B023F0014022A00CA011F017A
:1002DA00340094024307720B730B760B010C350042
:1002EA007C0B140243077A0B7B0B7C0B75001502FF
:1002FA00290000087300700071006F000609000CE5
:10030A006606010C0709090232000F0243078E0B29
:10031A008F0B9D0BD2004307930B940B9D0B9302FB
:10032A004306980B990B9B0B010CF30170007100AB
:10033A0013024306A10BA20BAB0B010C3C007D0080
:10034A001C02F0010306B1021D02F101010C910029
:10035A00F40C430690000307B30BB40BEF0BD30066
:10036A004307B80BB90BBB0BEC0BEC0B020C93015C
:10037A004307C00BC10BD00B0605060C2E00130C4D
:10038A002D00AD0C2C00EC02C80BED02C80BEE02DE
:10039A00C80BCF0BEC0B030C93014307D50BD60B01
:1003AA00D80B2605C20B040C93014307DD0BDE0BA9
:1003BA00BA0B4605030C2E008A0C2D00550C2C0096
:1003CA00EC02E50BED02E50BEE02E50BEC0B70001F
:1003DA007100730012022F00060426044604030C5F
:1003EA002D00970C2C00EC02F80BED02F80BFD0B1C
:0403FA00840B000A66
:021FFE00EA0FE8
:00000001FF
